:020000040000FA
:100000001807002085160000A7160000A91600009A
:1000100000000000000000000000000000000000E0
:10002000000000000000000000000000AB1600000F
:100030000000000000000000AD160000AF16000038
:10004000B116000035120000B1160000B116000014
:10005000B1160000B1160000B1160000B116000084
:10006000D10E0000B1160000B1160000B11600005C
:1000700069010000E7010000B1160000B1160000A0
:10008000B1160000B1160000B1160000B116000054
:10009000B1160000B1160000B1160000B116000044
:1000A000B1160000B1160000B1160000B116000034
:1000B0009F020000B1160000B1160000B11600004A
:1000C00000F002F800F040F80CA030C808382418FE
:1000D0002D18A246671EAB4654465D46AC4201D180
:1000E00000F032F87E460F3E0FCCB6460126334272
:1000F00000D0FB1AA246AB4633431847104B000012
:10010000304B0000103A02D378C878C1FAD85207B1
:1001100001D330C830C101D504680C6070470000BD
:100120000023002400250026103A01D378C1FBD813
:10013000520700D330C100D50B6070471FB5C046D1
:10014000C0461FBD10B510BD01F082FB1146FFF780
:10015000F5FF00F002FB01F09AFB03B4FFF7F2FF9A
:1001600003BC01F09FFB000010B5FB48C069FF21F4
:100170000131084234D02DE000BFF74880690121E9
:1001800089030842F9D1F4480068C4B2F348007802
:10019000002812D1F248007802210840022809D133
:1001A000482C07D1EF480078002803D10120ED4901
:1001B000087002E0204601F0A3F9EB480470E8481B
:1001C000007801210843E64908700020E7490870DB
:1001D000E7490860E048C069C007C00FCCD101E022
:1001E000DD48C06910BD10B5E248C069FF2101318A
:1001F000084251D04AE000BFDE48806901218903EE
:100200000842F9D1DB480068C4B2D448007800281D
:1002100002D1204601F06AF9D7480078002825D09D
:10022000D648D74909884454D5480088401CD44949
:100230000880084600887F2806DD00200880CE4917
:100240000870D049087021E0CC480079C01DCC4925
:10025000098888421AD1CA480088042816DD00207F
:10026000C54908700120C74908700FE0BB2C0DD1AB
:10027000C1480078012809D0C04804700120C04955
:100280000880BD4908700020BE490870B948C0699F
:10029000C007C00FAFD101E0B648C06910BD10B5AE
:1002A000B948006840210843B749086005200007A5
:1002B000C06BB6490840C01C05210907C86301206E
:1002C000B349886100F0AEFD10BD70B505460C461F
:1002D000012D03D1F02C01DCAE4804700120AE49A1
:1002E0000870AC4800784870142001F02AF970BDFD
:1002F00070B505460C4616460320A7490870084607
:1003000045708470002D1FD1002E09D1A3480068CC
:10031000611C4A00112191408843A04908600FE008
:10032000012E0DD19D480068611C4A0011219140A9
:100330008843611C4A0001219140084397490860A5
:1003400001219548C1702AE0012D18D1002E08D155
:1003500092488068611C01228A4090438F498860DE
:1003600009E0012E07D18D488068611C01228A4076
:1003700010438A49886001218748C1700FE0022D2F
:100380000DD186480069611C01228A40104203D0C9
:1003900001218148C17002E000217F48C1707E497F
:1003A0001A2001F0CEF870BD10B5044605200007F4
:1003B000006BFF21013108430521090708636D48DF
:1003C0004068402108436B49486074480068032135
:1003D00009038843724908437049086000206C494A
:1003E000886101205D490870002C06D06A490870B8
:1003F00000204870172001F0A4F800BF5D48806914
:10040000012189050842F9D0012000F06DFF052087
:100410000007C06B5D49084005210907C8635F48B4
:100420004030006800090001401D5C49403108600F
:1004300005200007C06B5B49084005210907C86318
:100440005648403000680F210902884305210902FF
:10045000401852494031086008468068E42108404D
:100460004E494031886000F001FF47480068202174
:1004700008434549086008460068FF218131084368
:100480004149086048480069042108434649086119
:1004900000F0F4FE30BF10BD70B504460D46002CD0
:1004A0002AD1FA2D28D13D48006803210903884349
:1004B0003B490843394908600020354988610120DB
:1004C00026490870192001F086F800BF224880698B
:1004D000012109070842F9D0012000F005FF00F0D2
:1004E000C5FE052000078068012108430521090792
:1004F000886000F0C3FE70BD192001F04EF800BF07
:10050000F9E710B50446092C01DC284804600120F5
:10051000214908702548006848702448006824492B
:1005200008711D491D2001F00CF810BD70B513486D
:100530004078002800D070BD104880781D287DD0FC
:100540003DDC112868D035DC072847D0092876D053
:100550000A2875D1CBE00000000005400C00002007
:10056000170000201D000020240000201C00002097
:100570001800002000001540140000202800002072
:100580001E0000201500002000020050FCFCFFFFB0
:1005900040420050160000203802002080400050E9
:1005A000FFDFFFFFCFCFFFFF00ED00E010000020D6
:1005B000A800002017287DD01928CAD184E0AD28D2
:1005C00011D006DC1F2876D0A92842D0AB28C0D194
:1005D0000EE0B62812D0F528BBD118E0ED484079DE
:1005E000ED49C871A9E0EB484079EB498871A4E076
:1005F000E8484179E848203041779EE0E548407975
:100600000002E44989790843E349C88795E0E14855
:100610004079E149487190E0DE4840790002DD4AC6
:1006200092791043642250430146DC4800F071FE89
:10063000D84840790002D74A927902E04AE04EE079
:1006400077E01043642250430146D44800F0DAFEBC
:1006500073E0D04B5A79002A03D10023CE4C237289
:1006600002E0342A00DD68E0002026E000210AE0F4
:10067000C94B09335C5C831DC64DEB5C9C4200D1C9
:1006800005E04B1CD9B2C44B1B7A8B42F0DC00BF97
:10069000C14B1B7A8B420BD1831DBE4CE45CBE4B1D
:1006A0001D7A09335C55093B1B7A5B1CBA4C2372DB
:1006B000431C01E004E028E0D8B29042D6DB3CE0E5
:1006C0000120FFF771FE38E0B24A91795079FFF7C7
:1006D000E3FE32E0AF494879FFF713FF2DE0AD4963
:1006E000487900F05FFB092000F075FF25E000F07D
:1006F00034FB002805D000F097FA0A2000F06BFFC9
:1007000002E00A2000F049FF17E0A24949790029D8
:1007100001D0012100E00021084600F0FCFC002887
:1007200003D01F2000F057FF02E01F2000F035FF2C
:1007300003E000209A49087000BF00BF00BFFAE63E
:1007400010B5002404E09349085D00F0E3FE641C4A
:10075000944800888442F6DB10BDA0B000F086FD0E
:100760009148006804218843001D8F49086000BF3C
:100770008D48C06810210842FAD08B480069C00833
:10078000C000C01D8849086100F078FD87480068F6
:1007900003210903884386490843844908600020EF
:1007A00084498861012000F09FFD01208149886112
:1007B00000F0C6FD00F03DFE00F0DAFC00207E49AE
:1007C00008707E49087000F011FD7D4840680521E1
:1007D00008437B4948607B480068012109030843BE
:1007E0007849086001207849087000F0D1F900F0DC
:1007F000B4FA002805D00A2000F076FD00F014FAC3
:1008000001E000F096FA00206F4908706F484068D8
:10081000052108436D4948606A4800680121490381
:1008200008436849086008460068090508436549A7
:10083000086000F0F7FAACE000F0D8FC62480078FD
:1008400000280CD0624800F03BFD00F0A1F90A201E
:1008500000F04AFD00F0E8F900205B4908705D48AF
:100860000078002829D0002501205B490870012468
:1008700005E04848005D4019C5B2601CC4B2494853
:100880000088801EA042F4DC46480088801E414952
:10089000085CA8420BD143480088401E085C7E28B3
:1008A00005D10846C078002801DCFFF73FFE002094
:1008B0004849087000F0B6FA00BF484800680028B0
:1008C0000AD0464800683C214843454909688842A7
:1008D00002D80020FFF768FD4248006802282CD3A8
:1008E0002F480078022108421AD13F48007800289A
:1008F00016D16946087002202949087000203B493A
:10090000087000BF31488069012109070842F9D009
:100910006946022000F07DFE01202F49087000BFCB
:1009200030480068032834D300F0EBF901201C495B
:10093000087000202B4908602BE029480068002837
:1009400024D0274800684007400F1FD11448007882
:10095000022108421DD124480078002819D1694697
:10096000087002200E49087000202049087000BF5E
:1009700016488069012109070842F9D0694602201A
:1009800000F047FE01201449087002E001200449EC
:10099000087051E728000020A800002000805101C5
:1009A000170000201E000020000200508040005070
:1009B000FFDFFFFF40420050240000202500002000
:1009C0000000054000E100E00C00002000001540A0
:1009D00088130000150000201C00002010000020DB
:1009E0002000002018000020140000201D0000201E
:1009F000FE4800680F2109028843FC490860084648
:100A00000068C9140843F949086005200007C06B55
:100A1000F749084005210907C8630846C06B032150
:100A20000903084305210907C863F2488068FF21CC
:100A300001310843EF498860A020EF49486008462B
:100A4000006840210843EC4908607047EA480068A4
:100A500004221043E84A1060104600680822104340
:100A6000E54A106000BFE4480068082210400828EA
:100A7000F9D1E148006828229043DF4A106010460F
:100A8000C068602801D000207047002123E0DA48C8
:100A9000006830229043D84A106010460068042253
:100AA0001043D54A10601046006808221043D24A0D
:100AB000106000BFD0480068082210400828F9D113
:100AC000CD48C068802805D0CB48C068F82801D040
:100AD0000020D9E7491C0229D9DBC7480068042255
:100AE0001043C54A10601046006808221043C24AED
:100AF000106000BFC0480068082210400828F9D1E3
:100B0000BD48C068A02801D00020BDE7BA480068F1
:100B100008221043B84A106000BFB7480068082296
:100B200010400828F9D1B448C068A82801D0002096
:100B3000AAE7002127E0B148405CAF4A9060104628
:100B4000006808221043AC4A106000BFAA48006841
:100B5000082210400828F9D1A748C068A02803D06F
:100B6000A548C068C02807D1A34800683C2290432C
:100B7000A14A1060084687E79F48C068B82801D09E
:100B8000002081E7491C9E488142D4D300207BE7A6
:100B900070B50024002500209A49087000F032FB4F
:100BA0004B21C901984800F0B4FB0CE07D20000106
:100BB000854201D9002070BDFE2000F097FC6D1C1D
:100BC000924800F07DFB8F480078FF28EED1B520D9
:100BD00000F08CFC8E4800F073FBE12149028A484A
:100BE00000F097FB7D20C00000F06AFBDB2000F0E6
:100BF0007DFC7D20C00000F063FBFD2000F076FC52
:100C00007D20C00000F05CFB002404E07B49085D0F
:100C100000F06CFC641C7A488442F7D300F0FEFAC2
:100C200000F0E4FA2046C6E730B5A1B07948007973
:100C30007949086077484579012168460171457115
:100C400001A9F52000F0E5FC0A2000F04DFB7148F9
:100C5000C579012168460171457101A9072000F09D
:100C6000D8FC0A2000F040FB6A48007A401CC1B260
:100C7000684601716748017A68464171002407E0BF
:100C800064480930025D01A80130611C4254641CB3
:100C90006048007AA042F3DC01A9A92000F0B9FC69
:100CA0000A2000F021FB5B4885790121684601712B
:100CB000457101A9AD2000F0ACFC0A2000F014FB46
:100CC00054482030457F012168460171457101A9D2
:100CD000AB2000F09EFC0A2000F006FB4D48C58FBB
:100CE00002216846017128126946487101A8857081
:100CF00001A9B62000F08DFC0A2000F0F5FA21B021
:100D000030BD10B500204549886101204449087074
:100D1000022000F0E9FA012040498861FFF738FF1E
:100D20000A2000F0E1FAFFF77FFF00203C4908703D
:100D300010BD00203749086008714871FF20887194
:100D40000120C87100200872072132482030417705
:100D50007D2000012F49C887704770B5002000F042
:100D60007DF90646012E01D0002070BD002500242B
:100D70000AE0204600F072F9A100264A5050A00077
:100D8000114608584519641C632CF2DB00F076FA12
:100D9000632000F063F9A84201D00020E5E7FF20BE
:100DA0009130E2E770B5054600261A48056000203C
:100DB00000F0DDF8012D01D0012070BD00240AE013
:100DC000A000144908588619A0000A461158204668
:100DD00000F019F9641C632CF2DB3146632000F04B
:100DE00012F900F04BFA0120E7E70000C040005084
:100DF000CFCFFFFF0002005000000240B2180000F9
:100E0000573300002400002000805101B80B00007F
:100E100088130000A800002010000020404200506D
:100E20000C00002010B500F021FA3448806804213D
:100E3000084332498860084640690721090288430F
:100E40000121890240182D49486105200007C0682A
:100E50000421084305210907C8600846C068042129
:100E6000884305210907C860254800680321C90691
:100E700088432349086008460068C902084320499E
:100E8000086008460068000A0002803008601D48BB
:100E900048600846006849030843194908601A4831
:100EA0000068891508431849086015480068012141
:100EB0008906084312490860084600688903084308
:100EC0000F49086000F0DAF900201049086010BDF1
:100ED0000B48806801210843094988600B48006875
:100EE000401C0A4908600A480078002804D00948D4
:100EF0000068401C0749086070470000000200506D
:100F00000000014000A3020000E100E020000020FA
:100F10001C000020180000209348006901210843AC
:100F20009149086100BF90480069C007C00FFAD11D
:100F3000704710B500F09AF98B480068012108430A
:100F40008949086010BD10B500F090F98648006826
:100F5000400840008449086010BD10B500F086F9D3
:100F600081480068202108437F49086010BD10B502
:100F70000446FFF7DEFFFFF7F0FF22207A49C86042
:100F800060024969401878494860FFF7C5FFFFF7DC
:100F9000DAFF10BD70B505460E46FFF7CAFFFFF732
:100FA000DCFF21207049C86000240AE0A0006E49DF
:100FB000496940186C49486028598860FFF7ACFFC0
:100FC000241DB442F2D3FFF7BEFF70BD70B50546D5
:100FD0000E46FFF7AEFFFFF7C0FF00206249C86072
:100FE00000240BE0A0006049496940185E49486050
:100FF000FFF792FF5C4880682851241DB442F1D36A
:10100000FFF7A1FF70BD70B504460D4600F02EF944
:101010005548006801210843534908602220C860F0
:101020002120C86008464069A10040184E49486028
:10103000084685600069012108434B49086100BFEB
:1010400049480069C007C00FFAD100F00FF94648BF
:101050000068400840004449086070BD70B504460F
:1010600000F004F940480068012108433E49086047
:101070000020C86008464069A10040183A4948600D
:10108000FFF74AFF3848856800F0F0F836480068F6
:10109000400840003449086000F0F0F8284670BD70
:1010A00010B500F0E3F830480068102108432E49DD
:1010B000086010BD10B5FFF73CFF00202A49C8604A
:1010C00088014860FFF728FF27488468FFF73BFF47
:1010D000204610BD10B5FFF72CFFFFF7E1FF2220DF
:1010E0002149C86088014860FFF716FFFFF72BFF12
:1010F00010BD10B50446FFF71CFFFFF7D1FF2120FC
:101100001949C8608801486008468460FFF704FFF9
:10111000FFF719FF10BD70B50446FFF7CBFF05467A
:10112000124E002C04D0802128468843064602E057
:10113000802028430646FFF7CDFF3046FFF7D9FF52
:10114000FFF7B8FF0546002C04D08020054201D1EE
:10115000012070BD002C04D18020054201D0012067
:10116000F7E70020F5E7000000C00050FFFFBFFFD9
:1011700010B500F07BF83A488068012108433849EF
:1011800088600846406980088000C01C4861354876
:1011900000680221084333490860084600680721B7
:1011A000090288432F4908600846006805210902A2
:1011B00008432C4908600846006840210843294933
:1011C000086029480068022108432749086025482B
:1011D000006880210843234908600846006801210F
:1011E00008432049086000F049F810BD10B500F030
:1011F0003DF81C480068012108431A49086000F0C6
:101200003DF810BD10B500F031F816480068802197
:1012100088431449086000F031F810BD10B500F0A3
:1012200025F810480068802108430E49086000F046
:1012300025F810BD10B5052000F0AFF900F016F844
:1012400008480068202108430649086008460068ED
:10125000082108430349086000F010F810BD0000A1
:10126000000200500040004000E100E05920114918
:1012700008601620086088200860704700200D492B
:10128000086070470C48006A0521090488430A4930
:101290000862704700B5FFF7E9FF08480107486298
:1012A00000BD00B5FFF7E2FF0020052109074862F5
:1012B00000BD00000001005000020050A55A0000CF
:1012C00016214143E84A51610021916111460969A3
:1012D00001221143E44A116100BFE3490969012277
:1012E00012041142F9D070471B2149034143DE4AE1
:1012F0005161002191611146096901221143DA4AC5
:10130000116100BFD8490969012212041142F9D0C4
:10131000704770B504460D4600BFD448806901216E
:1013200009070842F9D02946204600F0E1F9801E5D
:10133000CE49496A090C09040843CC49486270BD8A
:1013400010B505200007C06BC9490840C01C052125
:101350000907C8630846C06801210904084305213C
:101360000907C8600846C0680121090488430521AF
:101370000907C860BF488068012109040843BD49C6
:101380008860084640690321090688434018B94926
:101390004861084680690F2109028843B549886180
:1013A000B248806804210843B049886008468068D4
:1013B00002210843AD4988600846C0680821884377
:1013C000AA49C8600846C06880088000C01CC86080
:1013D0000846C06804218843A449C8600846406A9A
:1013E000012149070843A14948620846406A012192
:1013F000090708439D4948624B21C9019E48FFF7F0
:1014000088FF10BD70B504460D4600BF9B4880693B
:10141000012109070842F9D02946204600F068F961
:10142000801E9249496A090C09040843934948629D
:1014300070BD10B505200007406B9149084003219D
:10144000890240180521090748630846C068012140
:101450004904084305210907C8600846C0680121FE
:101460004904884305210907C86082488068012132
:10147000490408437F4988600846406903210906FA
:10148000884340187B494861084680690F2109025A
:1014900088437849886179488068042108437749FE
:1014A00088600846806802210843744988600846BD
:1014B000C068082188437149C8600846C068800830
:1014C0008000C01CC8600846C068042188436B497E
:1014D000C8600846406A0321090708436749486213
:1014E000E12149026448FFF78DFF10BD00BF5F494D
:1014F00089690122D2051142F9D15C49086070471F
:1015000000BF5E4989690122D2051142F9D15B49C8
:101510000860704700B503461846FFF7F1FF00BDAD
:1015200000B503461846FFF7E1FF00BD00BF4F4876
:101530008069012189030842F9D14C480068C0B292
:101540007047F0B506460C46BB20FFF7E3FF0120CD
:10155000FFF7E0FF3046FFF7DDFF0020FFF7DAFF7F
:101560002078FFF7D7FF701C21784018C7B20025FC
:1015700009E0601C405DC019C7B2611C485DFFF7FF
:10158000C9FF681CC5B22078A842F2DC3846FFF7D4
:10159000C1FF7E20FFF7BEFFF0BD30B50446002539
:1015A000BB20FFF7B7FF0120FFF7B4FFFF20FFF7D5
:1015B000B1FF0020FFF7AEFF0120FFF7ABFF204691
:1015C000FFF7A8FF601CC5B22846FFF7A3FF7E20E7
:1015D000FFF7A0FF30BD30B504460025BB20FFF764
:1015E00099FF0120FFF796FF2046FFF793FF0020A9
:1015F000FFF790FF0120FFF78DFF0020FFF78AFF24
:10160000A01CC5B22846FFF785FF7E20FFF782FFAA
:1016100030BDF0B506460C46BB20FFF781FF002029
:10162000FFF77EFF3046FFF77BFF0020FFF778FFD4
:101630002078FFF775FF20783018C7B2002509E041
:10164000601C405DC019C7B2611C485DFFF768FFB0
:10165000681CC5B22078A842F2DC3846FFF760FF6C
:101660007E20FFF75DFFF0BD00E000E000000540D8
:10167000FCFCFFFF000200500080510100001540FB
:10168000F3F3FFFF0E480F4901600F4901600F4956
:1016900001600F4A0F4911600F4A10491160002183
:1016A00001600F480047FEE7FEE7FEE7FEE7FEE7C2
:1016B000FEE700000B480C490A4A0C4B704700003B
:1016C00000010050590000001600000088000000D2
:1016D00024000050A55A0000800300501F000000A5
:1016E000C100000018030020180700201803002084
:1016F000002203098B422CD3030A8B4211D300230F
:101700009C464EE003460B433CD4002243088B42E8
:1017100031D303098B421CD3030A8B4201D3944675
:101720003FE0C3098B4201D3CB01C01A5241830968
:101730008B4201D38B01C01A524143098B4201D322
:101740004B01C01A524103098B4201D30B01C01A4D
:101750005241C3088B4201D3CB00C01A52418308C7
:101760008B4201D38B00C01A524143088B4201D3F4
:101770004B00C01A5241411A00D201465241104654
:1017800070475DE0CA0F00D04942031000D34042C9
:10179000534000229C4603098B422DD3030A8B42FF
:1017A00012D3FC22890112BA030A8B420CD389019D
:1017B00092118B4208D3890192118B4204D3890183
:1017C0003AD0921100E08909C3098B4201D3CB01C1
:1017D000C01A524183098B4201D38B01C01A524176
:1017E00043098B4201D34B01C01A524103098B427A
:1017F00001D30B01C01A5241C3088B4201D3CB0065
:10180000C01A524183088B4201D38B00C01A524147
:10181000D9D243088B4201D34B00C01A5241411A1E
:1018200000D20146634652415B10104601D340424C
:10183000002B00D54942704763465B1000D34042FD
:1018400001B50020C046C04602BD704770477047D2
:10185000754600F023F8AE46050069465346C008B9
:10186000C000854618B020B5FFF724FF60BC0027F4
:101870004908B6460026C0C5C0C5C0C5C0C5C0C55C
:10188000C0C5C0C5C0C5403D49008D46704704462F
:10189000C046C0462046FEF760FC00000048704786
:1018A000B802002001491820ABBEFEE72600020066
:1018B00070470226EF023647FFFFFFFFFF0230E4CA
:1018C000BFFF0978BC7602D2A9D28C22C2A9C28CF1
:1018D00078BC760622021E37E709F608DFFA804652
:1018E000E709F208DFFA803E88828C83E709F0A3DB
:1018F000DFFA8032E309F608DFFA8078E309F208BC
:10190000DFFA807088828C83E309F0A3DFFA8064B9
:1019100089828A83E0A3F608DFFA805889828A8365
:10192000E0A3F208DFFA804C80D280FA80C680D42F
:10193000806980F28033801080A680EA809A80A837
:1019400080DA80E280CA803389828A83ECFAE49369
:10195000A3C8C582C8CCC583CCF0A3C8C582C8CCF7
:10196000C583CCDFE9DEE7800D89828A83E493A317
:10197000F608DFF9ECFAA9F0EDFB2289828A83EC04
:10198000FAE0A3C8C582C8CCC583CCF0A3C8C58281
:10199000C8CCC583CCDFEADEE880DB89828A83E4B9
:1019A00093A3F208DFF980CC88F0EF60010E4E605F
:1019B000C388F0ED2402B4040050B9F582EB240290
:1019C000B4040050AF232345822390047673BB01F7
:1019D0000689828A83E0225002E722BBFE02E322CC
:1019E00089828A83E49322BB010CE58229F582E592
:1019F000833AF583E0225006E92582F8E622BBFE11
:101A000006E92582F8E222E58229F582E5833AF5A6
:101A100083E49322BB010FF8E58229F582E5833A3E
:101A2000F583E028F0225009C58229F8E58226F6E0
:101A300022BBFE09C58229F8E22582F222F8EA25B6
:101A400083F583E9932822BB010689828A83F022E9
:101A50005002F722BBFE01F322F8BB010DE58229FB
:101A6000F582E5833AF583E8F0225006E92582C83D
:101A7000F622BBFE05E92582C8F222EF8DF0A4A86C
:101A8000F0CF8CF0A428CE8DF0A42EFE22BC000B4B
:101A9000BE0029EF8DF084FFADF022E4CCF875F0A4
:101AA00008EF2FFFEE33FEEC33FCEE9DEC98400583
:101AB000FCEE9DFE0FD5F0E9E4CEFD22EDF8F5F049
:101AC000EE8420D21CFEADF075F008EF2FFFED3351
:101AD000FD4007985006D5F0F222C398FD0FD5F0CF
:101AE000EA22C2D5EC30E709B2D5E4C39DFDE49CFF
:101AF000FCEE30E715B2D5E4C39FFFE49EFE12056D
:101B0000DBC3E49DFDE49CFC80031205DB30D507BC
:101B1000C3E49FFFE49EFE2275F008758200EF2F5C
:101B2000FFEE33FECD33CDCC33CCC58233C5829BA3
:101B3000ED9AEC99E58298400CF582EE9BFEED9AC9
:101B4000FDEC99FC0FD5F0D6E4CEFBE4CDFAE4CC65
:101B5000F9A88222B800C1B90059BA002DEC8BF067
:101B600084CFCECDFCE5F0CBF97818EF2FFFEE3324
:101B7000FEED33FDEC33FCEB33FB10D7039940044F
:101B8000EB99FB0FD8E5E4F9FA227818EF2FFFEE76
:101B900033FEED33FDEC33FCC933C910D7059BE9A7
:101BA0009A4007EC9BFCE99AF90FD8E0E4C9FAE403
:101BB000CCFB2275F010EF2FFFEE33FEED33FDCCA2
:101BC00033CCC833C810D7079BEC9AE899400AED8C
:101BD0009BFDEC9AFCE899F80FD5F0DAE4CDFBE434
:101BE000CCFAE4C8F922E8600FECC313FCED13FD56
:101BF000EE13FEEF13FFD8F122E8600FEFC333FFBF
:101C0000EE33FEED33FDEC33FCD8F122ECF0A3ED26
:101C1000F0A3EEF0A3EFF022A8828583F0D083D06A
:101C20008212077D12077D12077D12077DE473E49F
:101C300093A3C583C5F0C583C8C582C8F0A3C58377
:101C4000C5F0C583C8C582C822D083D082F8E4938A
:101C50007012740193700DA3A393F8740193F5822D
:101C60008883E4737402936860EFA3A3A380DFEC1E
:101C70008EF0A4CCC5F0CCCDF8EFA4CEC5F02DFDF0
:101C8000E43CFCE8A42EC8C5F03DFDE43CFCEFA418
:101C9000FFE5F028FEE43DFDE43CFC22E4F52EF5F2
:101CA0002F901E5AE0FFD394004014EF24FFFFE46E
:101CB00034FFFE7C007D501205DBEF04FF80027FC5
:101CC000018F30E4F532901E53E0FE901E52E0FD8D
:101CD000EDFF901ECAEEF0A3EFF0C2A8901E59E0EF
:101CE000FE54E0901EC5F0EE541C901EC4F0E5308A
:101CF000D394014015A3E0FFD39400400DEFB480CE
:101D000004E4FF80027F01122CCCE4F52FAD2FED0F
:101D10003395E0FCC3ED95307480F86C9840030275
:101D20000AE5E53014C36480F8E52F648098500517
:101D3000753150801B901E5AE0FF7004F531801001
:101D4000EF75F05084AFF0EF70047F5080008F315A
:101D5000D3E52F64809480404E901EC5E06480607F
:101D60001C901EC4E0FF940C4008EFD3941850025E
:101D70008022EF6003B41C1F901EC4800A901EC412
:101D8000E0FFD3940C50057408F0800BEF641460EE
:101D900006901EC47418F0901E59E054E3FF901E84
:101DA000C4E04FF5338006901E59E0F53385322E9E
:101DB000E531131313541FF52C33333354F8FFC399
:101DC000E5319FF52D901ECAE0FEA3E0FF7B017A6E
:101DD0001E79C6122C59901EC6E0FF75F008A42487
:101DE000152531F59475950CE4F519F51AE533C40C
:101DF000540F44A0120EF7F0051AE51A70020519E7
:101E0000E533C454F0FE901EC7E0FDC4540F4E12DB
:101E10000EF7F0051AE51A70020519EFB40103ED8B
:101E20008022901EC6E064027028A3E0C454F0FF34
:101E3000A3E0FEC4540F4F120EF7F0051AE51A7016
:101E4000020519EEC454F0FFE531C4540F4F120ED1
:101E5000F7F0051AE51A70020519120F57E0FFC4D2
:101E6000540FFEE531C454F04E120EF7F0E52C701D
:101E700050E52DC39404502FC37404952DFE74FFB8
:101E8000C8EEC8088002C333D8FCFE120EF7E05E2D
:101E9000FEE52D2404FD901E50E0FCC8EDC808802E
:101EA00002C313D8FC8016051AE51A700205191230
:101EB0000F998002C313D8FCFEEFC454F04E020AFF
:101EC000B9E52D703385322E120FA8501A051AE588
:101ED0001A70020519120F57120FDAC4540F4F125D
:101EE0000EF7F0052E80E1120EF7E054F0FF901E81
:101EF00050E0C4540F4F807385322E120FA8501B30
:101F0000051AE51A70020519120F57120FDAFEC4EE
:101F1000540F4F120EF7F0052E80E0E52DC3940408
:101F20005029C37404952DFF74FFC8EFC8088002C0
:101F3000C333D8FCFF120EF7E05FFFE52D24041237
:101F40000F9D8002C313D8FC4F8020051AE51A703C
:101F5000020519E532252C2460120F5BE0C454F011
:101F6000FF120F998002C313D8FC4F120EF7F075C1
:101F7000800130A0FD7F1E7E001235BBC280901E06
:101F8000CBE02450F0901ECAE03400F0740A2532F1
:101F9000F532052F02085B227855E66003020CE457
:101FA00008E61207970B84020B89030B96070BA414
:101FB000080CF1090CF10A0C5B0B0C550C0BEC0D29
:101FC0000BE20E0CCC110C5E120CF1170CF1190C7B
:101FD000D21A0CF11D0C28220C2B270C3A280C3D90
:101FE000390C43490CDF550C4F650C49820BA7A9EE
:101FF0000BDFAA0BC1AB0BD7AC0BEFAD0BFDAE0BE0
:10200000D0AF0C00B00C19B60C25B70CB1E00CB772
:10201000E10CB7E20CBDE30CC3E40CC6E50CC6E66C
:102020000B90EC0C65F00C99F10CA3F20CAEF30CD8
:102030009CF500000CE27F4802363F7859E6FF022B
:102040002F37122E7C022A837859E6FF1235CEE410
:10205000FD7F07020C960235757B007A00795A786D
:1020600059E6FD12248FEF7003020CF1E4FD7FA905
:10207000020C96123301AD1D1210ADE4FD7FAB02D0
:102080000C961233017D0180051233017D0202108E
:10209000AD02358D7859E6FF08E6FD0235A502351B
:1020A0005A7859E6FF12040EE4FD7FAD020C960249
:1020B00036077859E6B4FF0512335180087859E69F
:1020C0007003123417E4FD7FB0807D1233081232A2
:1020D0000BE4FD7FB6807102349402324D785AE6EB
:1020E000FE08E6FDEE78B4F6ED08F622023613128D
:1020F00032D10214891232D10213511232D1022983
:102100000D1232D1021D681232D10225C802265F9B
:102110007859E6FF02361F7859E6901E51F0FC0808
:10212000E6901E56F0FD08E6FE08E6FBEBFF901E6B
:1021300057EEF0A3EFF0CFECCF901E57E0FAA3E0FC
:10214000FB1234DAE4FD7FF0022FEB0233EA785918
:10215000E6FF02338E122B6F1232FA7FF2022D3B12
:10216000021FB91232D102233C1232D102253012A1
:1021700032D1022BE4021A041232D1021BC31233F1
:102180000802353D7859E6FF08E6FD08E6FB022720
:102190007B02362A80067855E6B4FF07E4FD7F17F8
:1021A000122F9222E4901EB7F0120F78120F78F5DA
:1021B00019F51AE5ABD394005003020EDEE4901E2D
:1021C000B9F0901EB9E0C395AB4003020EE8E4906D
:1021D0001EB8F07FBB12363F7F0212363F7F2212BD
:1021E000363FE4FF12363FE59A20E303020E63E533
:1021F0001A2404F582E43519F583120F1E25E090A8
:102200001EB7F02403901EBAF0120EF7E0FEA3E012
:10221000901EBB121034120EF7A3A3E0FE120EF7AD
:10222000A3A3A3E0901EBD1210347404251AF51A5E
:10223000E43519F519D3901EBCE09F901EBBE09EBB
:102240004023901EBDE0FEA3E07803CEC313CE135F
:10225000D8F9FF7C007D031205C9901EBCE02FFF5A
:10226000901EBB8021901EBBE0FEA3E07803CEC38E
:1022700013CE13D8F9FF7C007D031205C9901EBE52
:10228000E02FFF901EBDE03E901EBFF0A3EFF0E4F4
:10229000901EB5F0A3F0901EB5E0FEA3E0FFC3943E
:1022A00040EE648094805042EF25E0FFEE33FE74F0
:1022B0004E2FF58274363EF583E493FE740193FF4E
:1022C000D3901EC0E09F901EBFE09E500D901EB5A3
:1022D000A3E024D2901EC1F08010901EB6E004F05E
:1022E00070B4901EB5E004F080AC901EC1E0FF9089
:1022F0001E51E09036CE121081901E56E09036D5D9
:1023000012108112108D901EBAE0FF12363F901EFF
:10231000C1E0FF8013120EF7120F1E25E0901EB7CA
:10232000F02402FF901EBAF012363F901EBAE0244D
:102330002412108CE4901EB5F0A3F0901EB7E02498
:1023400002FFE433FEC3901EB6E09FEE6480F89077
:102350001EB5E06480985022120EF7E012108C1225
:10236000363F051AE51A70020519901EB6E004F012
:1023700070C9901EB5E004F080C1901EB8E0FF1255
:10238000363F7F7E12363F901EB9E004F0020D10FA
:10239000E5AB7006FD7F15122F922275952E75966E
:1023A00010539BF0E4F519F51A851A8285198322DA
:1023B000FDEDFFEEF0A3EFF0900007120535900061
:1023C00008FE120535FDEDFF2278BC7606901E90C2
:1023D000E0131313541F0422E4F59FE5CFC43333F5
:1023E000335480FFE5CEC3134FF5CEE5CFC313F5CD
:1023F000CF22E5CF25E0FFE5CEC413131354014FE0
:10240000F5CFE5CE25E0F5CE227460252EF582E4E9
:10241000341EF58322E529C4333354C0FF22E0FE85
:10242000A3E0FFA3E0FCA3E0FD22A3F0A3F0A3F050
:10243000A3F0A3F022900005120535FE90000622BD
:10244000EEF0A3EFF0900009020535E52D24FCFE27
:10245000901E50E0FDC8EEC80822E52C2532FFE4AE
:1024600033FEC3E52E9FEE6480F8748098227402D8
:10247000F07406901E56F0A3E4F0A322900001121F
:1024800005A79000017480120562ED22E0C454F0AB
:10249000FF7461252EF582E4341EF583E022F07B83
:1024A000017A1E79E022F0901E57E0FAA3E0FB22A9
:1024B000E6FE2402901EE0F0E4A3F0EE14A3F02266
:1024C000F090000A020535E5ADC4333354C0FFE592
:1024D000AE1313543F4F22F5317B007A007930124E
:1024E000328F75800122FDEDFFEEF0A3EFF022F5B3
:1024F00082851983E5ADF0051AE51A2275953E75BA
:102500009610539BF0759F642225E02401F582E428
:102510003437F58322240CF582E433F58302053544
:10252000E004F0E0C3940522EEF0A3EFF090000C7D
:1025300002053593FEC3EF9EFF901EC1F022FF906F
:102540001EB8E02FF022901E5AE0FF131313541F01
:1025500022E5189036E99322853182853083228FD7
:1025600010CAEDCAE4901E5BF0F511F512F517F5EF
:1025700016F515F514F513EA24FE602C14604114C9
:10258000601724FE604B240570691231E7243DFF7B
:10259000EE340AFEED340E804E1231E724BDFFEE1C
:1025A00034D1FEED340C803FAF107E007C017DF411
:1025B0001207BDEF246AFFEE34C4FEED340D802710
:1025C0007DC81231E9244CFFEE3433FEED340D802A
:1025D00016AF107E007C007DC81207BDEF246CFF93
:1025E000EE34FEFEED340DFDE43CFC901E5C120763
:1025F0005A800A901E5C120766000E1113EB701DC4
:1026000085101E1231E0901E5C1231F41206A29069
:102610001E5BEFF01231DFA31231F48012901E5CCA
:102620001231C61206A2901E5BEFF0A31231C61241
:1026300006A2CEEACECFEBCF8E118F12E4F517E5CE
:102640001225E0F512E51133F511C3E51294C8E542
:10265000119432401EE5164401F516E515F515E511
:1026600014F514E513F51374382512F51274CD35ED
:1026700011F5111232001207478F168E158D148C2A
:10268000130517E517B414B71232001207348F166A
:102690008E158D148C13901E5BE0F5B38514B085F8
:1026A00015B18516B253FBF77F057E001235BB438B
:1026B000FB08228F258C268D278A288B29C2A87F8C
:1026C000057E001235BB75370075380075392B7BD8
:1026D000007A00792A123130EF70037F10227F05D3
:1026E0007E001235BBE528652AF52CE529652BF51A
:1026F0002D7B007A00792EAF27AE26122C59E52EBD
:1027000075F008A4242AF59412104A120EF274C32C
:10271000F0051AE51A70020519E525120F65E52F77
:102720001313543F4F120EF7F0051AE51A70020505
:1027300019E52EB4011AE52F120F65E52C13135479
:102740003F4F120EF7F0051AE51A70020519803690
:10275000E52E64027030E52F120F65E53013135437
:102760003F4F120EF7F0051AE51A70020519E53011
:10277000120F65E52C1313543F4F120EF7F0051A94
:10278000E51A70020519E52C120F65E52D13135497
:102790003F4F120EF7F0051AE51A70020519E52DE4
:1027A000120F65E5AD1313543F4F120EF7F0051AE3
:1027B000E51A70020519121015120EF7F0051AE548
:1027C0001A70020519E5AEC4333354C0120EF7F087
:1027D000120F4075800130A0FD7F647E001235BB72
:1027E000120F2630A21820A61520A705C2807F0050
:1027F0002230A70AC280120EF2E044B0FF22C2804B
:102800007F10228B218A228923120F831205359093
:102810001EB5120EFE901EB7120F8E901EB912102A
:102820000EFE90000B120F10901EBA121076901E22
:10283000BCF090000D120535901EBDF0E4901EC155
:10284000F0901EB5120F6C7B10121F00EF70030288
:10285000147DE4F524901EBDE0FFE524C39F4003F2
:1028600002146FE4901EC0F0E52425E0FFE433FE7F
:10287000740E2FF582E43EF583AB21AA22A9231220
:102880000535FCE52425E0FFE433FE740F2FF582C7
:10289000E43EF583120535FFECFE901EBEEEF0A37C
:1028A000EFF012147E120F6F901EBEE0FAA3E0FB51
:1028B000121201901EC1EFF07002803312147E12CA
:1028C0000F6F7B011216DCEF701D120EF3E0FF900C
:1028D0001EBEE0FEEF6E700F120EF7A3E0FF901E1B
:1028E000BFE0FEEF6E6008901EC012106E40B39005
:1028F0001EBBE004F07006901EBAE004F0901EC00B
:10290000E0C39405401612341778BC7606901EC1B9
:10291000E0FF120F1BFE25E0FD022F92052402139B
:10292000A3123417120F1725E0FD7F49122FEB2257
:102930007F647E001235BB901EB922120F831205F0
:1029400035901EB5120EFE901EB7120F8E901EB956
:1029500012100E90000B120F0F901EBA12107690EC
:102960001EBCF090000D120535901EBDF025E0F55F
:1029700022E433F521E4F523901EC0F0901EB51239
:102980000F6C7B09121F00EF70030215BAE4901E52
:10299000C1F0901EB9120F6F901EBDE0FB1216DC45
:1029A000901EC0EFF06008901EC112106E40E3123E
:1029B000341778BC7606901EC1E0C39405400F9092
:1029C0001EC0E0FF120F1BFE25E0FD022F92123405
:1029D00017E4F519F51A7FBB12363F7F0112363F17
:1029E0007F3912363F901E90E0131313541F2401B9
:1029F000FFE433FEEF25E0FFEE33FEE5222FFFE597
:102A0000213EFEEF2401FFE43E901EBEF0A3EFF056
:102A1000901EBEE0FF12363F901EBFE0FF12363F11
:102A2000901EBEE0243AFFA3E02FF523123312EFED
:102A30002523F523E4F524F525C3E5259522E52492
:102A40009521501E120EF7E0FF2523F52312363F85
:102A5000051AE51A700205190525E52570020524F9
:102A600080D7AF2312363F7F7E12363F228F408DB4
:102A7000418B428A43894485DB4585E44685BF47CF
:102A800085FC4885D249E4F54A75F68075F5907F56
:102A9000E87E031235BB7B01AD41AF401210AD752E
:102AA000D26175E41775FC0275BF0353FBDF43FB6E
:102AB000207FDC7E051235BB43DB0475FC047F7888
:102AC0007E001235BBE4F54BE5F7D39400400205D8
:102AD0004AAB42AA43A944854B82758300E5F712AD
:102AE00005A77F647E001235BB054BE54BC39404FC
:102AF00040D6E54AD3940140258545DB8546E485EB
:102B000047BF8548FC8549D253FBDF43FB207FDC70
:102B10007E051235BB75F6FF75F5FE7F012275E463
:102B20000375FC0253DBFB7F147E001235BB53FBA5
:102B3000DF43FB207FDC7E051235BB75FC047F780C
:102B40007E001235BBE4F54BAB42AA43A944854B4A
:102B500082758300E5F71205A77F647E001235BBFE
:102B6000054BE54BC3940440DF8545DB8546E48592
:102B700047BF8548FC8549D253FBDF43FB207FDC00
:102B80007E051235BB75F6FF75F5FE7F02228F2696
:102B90008B27E52775F010A4AEF02410F52DE43E48
:102BA000F52CCFEDCFCEECCE7B007A007928122C1D
:102BB00059E52875F008A42422F59475953E852DD5
:102BC00096E52CFFE59B54F04FF59B120EF274C274
:102BD000F0051AE51A70020519E526120F65E529B8
:102BE0001313543F4F120EF7F0051AE51A70020541
:102BF00019E528B40118120F63E5271313543F4F4A
:102C0000120EF7F0051AE51A700205198034E5284E
:102C10006402702E120F63E52A1313543F4F120EF5
:102C2000F7F0051AE51A70020519E52A120F65E595
:102C3000271313543F4F120EF7F0051AE51A7002CE
:102C40000519E527120F65E5AD1313543F4F120E1A
:102C5000F7F0051AE51A70020519121015120EF791
:102C6000F0051AE51A70020519E5AEC4333354C0F5
:102C7000120EF7F0758001C2A830A0FD7F327E00F1
:102C80001235BB30A21820A61520A705C2807F00F0
:102C90002230A70AC280120EF2E044A0FF22C280B6
:102CA0007F092275953E759610539BF0E4F519F552
:102CB0001A851A8285198322F582851983E5AEF07B
:102CC000759F64E5CF25E0FFE5CEC41313135401CF
:102CD0004FF5CFE5CE25E0F5CE22E4F59FE5CFC454
:102CE0003333335480FFE5CEC3134FF5CEE5CFC366
:102CF00013F5CF22FDEDFFEEF0A3EFF090000712E9
:102D00000535900008FE120535FDEDFF22901E905E
:102D1000E0131313541F0425E02274E0F0051AE5B4
:102D20001A22F582851983E5ADF0051AE51A22EE1F
:102D3000F0FCA3EFF0900009020535E0FD74E12FEF
:102D4000F582E4341EF58322E0FEA3E0FFA3E0FC5D
:102D5000A3E0FD22900005120535FE90000622FE3C
:102D60002403901EE0F0A3EEF07F0122C43333333E
:102D7000548022F582851983E4F0051AE51A22F0C1
:102D800074E32EF582E4341EF58322E0AB27AA28F3
:102D9000A9292274E22EF582E4341EF58322F07B09
:102DA000017A1E79E022E0AB28AA29A92A22900004
:102DB000010205358F278B288A29892A759434E5E5
:102DC000277005759620800675961012180E539B75
:102DD000F075953E1217FA1218687002051912184C
:102DE000C170020519EDC4333354C0FFE527121832
:102DF000BA4FFF1218F512051CC4540F4F1217FFDB
:102E0000F0051AE51A700205191218FCC4540FFFD8
:102E100012051CC454F04F1217FFF0051AE51A7082
:102E20000205191218FCC454F0FFE5ADC4540F4F4D
:102E30001217FFF0051AE51A70020519E5ADC45422
:102E4000F0FFE5AEC4540F4F1217FFF0051AE51A54
:102E500070020519E5AEC454F01217FFF075800139
:102E600030A0FD7F0A7E001235BBE52760031218F3
:102E70002830A23D20A63AE4F519F51A30A70AC277
:102E8000801217FFE044E0FF22E527701F1217FFB2
:102E90001218F4120595051AE51A70020519F58243
:102EA0008519831218F49000011205A7C2807F00D3
:102EB00022C2807F2E22E4F521F5221234FDEF603C
:102EC00007E4FD7F20021AE478BC76071233517FB5
:102ED000947E021235BBC2A8E522C39405400302CA
:102EE0001ACA75942475951F7596401217F7121813
:102EF0006870020519F5828519837404F0051AE5D6
:102F00001A70020519F582851983741FF0051AE5F8
:102F10001A70020519F58285198374FBF0051AE50C
:102F20001A70020519F5828519837410F0758001F5
:102F300030A0FD7F327E001235BB30A23820A7358D
:102F400012346FEFC39408402C0521E521D394017E
:102F50004023E4F519F51A901EE07408F0E4FF121E
:102F600017FFE0FE12188BEEF0051AE51A70020545
:102F7000190FBF08EAC2800522021A2612341778F8
:102F8000BC7606E521D3940140081218ED7FE402D7
:102F90002D3BE4FD7F1D122F92228B278A28892941
:102FA000C2A87F057E001235BB75370075380075E5
:102FB000392B7B007A00792A123130EF70037F1AA7
:102FC000227F057E001235BB1218DA12051C652A15
:102FD000F52C1218FC652BF52D75943875953E75FA
:102FE00096201217F712186870020519F5828519D4
:102FF000837407F0051AE51A700205191218C170DA
:10300000020519F582851983E52CF0051AE51A7079
:10301000020519F582851983E52DF0051AE51A7068
:103020000205191218707002051912180675800130
:1030300030A0FD7F147E001235BB121828E4F5196C
:10304000F51A30A22B20A62820A71BC2801217FF3A
:103050001218D91205951217FFA31218D990000162
:103060001205A77F0022C2801217FFE044E0FF2272
:10307000C2807F1A221218A2121854901EB512187C
:1030800045901EB712187D901EB9F090000A1205E7
:1030900035901EBAF075231E752490E4F526900035
:1030A0000B120535F52190000C120535F522901E06
:1030B000B5E0FEA3E0FF7B2E121F00EF7003021CA1
:1030C00098E4F5257F647E001235BB901EB9E0FFC1
:1030D000A3E0FD7B007A0079211219028F26E526F4
:1030E00060090525E525C3940540D912341778BC3D
:1030F0007606E525C39405400912185BFDAF26024C
:103100002F92901EB9E0600912185BFD7FE6022F36
:10311000EB85248285238312185E1218ADEFD39EAF
:103120005016852482852383121889EDF00524E545
:1031300024700205230F80E51218E1E5211218CD55
:10314000E5221218EC7FE5122D3B228E268F278C6C
:10315000288D298B2A75370075380075392E7B002C
:103160007A00792D123130EF7003021D63E52D6571
:1031700026F52BE52E6527F52C7B007A00792B753B
:103180003301E4FD12280475800130A0FD7FC87E64
:10319000001235BBE4F519F51A30A27920A6761293
:1031A0000EF7E065AD706EA3E065AE7068C280F5A5
:1031B0003775380075392EFB7A00792D123130EFD2
:1031C0006053E52D6528F52BE52E6529F52C7B0050
:1031D0007A00792B753302AD2A122804120F40753C
:1031E000800130A0FDE4F519F51A120F2730A22551
:1031F00020A62220A715C280120EF7E065AD700848
:10320000A3E065AE7002FF227F1222C280120EF28E
:10321000E044D0FF22C2807F12228B218A228923A0
:10322000120F83120F10901EB5120F01901EB7EEF1
:10323000F0A3EFF0E4F524F5251234FDEF6007E488
:10324000FD7F20021E3378BC76071233517F947EB7
:10325000021235BBE524C39405502578BDE6640110
:1032600060031207EA759A1175800330A0FDC280D1
:10327000E5ABD3940040051233BC8004052480D410
:10328000E5ABD3940040517F1E7E001235BBAB21CD
:10329000AA22A923900004120535B40403E4800394
:1032A000120F93901EB9F0901EB5120F6CA3E0FBA5
:1032B000121C998F2512341778BC7606E525901ECE
:1032C00090600A120F1E25E0FDAF258018120F1E18
:1032D00025E0FD7F65022FEBC28012341778BC76A3
:1032E00006E4FD7F12122F9222C0E0C0D075D008F4
:1032F000C2AC209803021EF9200103021EE174549F
:103300002553F8A699E553B404182454F8A69978DF
:1033100057E6D394004004785576FF7858E6F55286
:103320008058E5522406FFE433FEE5536F7001EE4A
:103330007048F54C74542553F8E6647E6004785563
:1033400076FF754D01E55314FFE54DC39F500E7494
:1033500054254DF8E6254CF54C054D80E874532571
:1033600053F8E54C66C37001D34004785576FF747A
:10337000542553F8A699C201D2000553E553D394BE
:103380005F4026755300C201D20075520078557611
:10339000FF8016E599B4BB1120010E7854A69975EB
:1033A0005301755200D201C200C298D2ACD0D0D025
:1033B000E0328E278F288C298D2A8B2BE4901EC318
:1033C000F0C2A81234FDEF6007E4FD7F20021FB3B6
:1033D00078BC76071233517F947E021235BBE4909D
:1033E0001EC2F078BDE6640160031207EA759A1107
:1033F00075800330A0FDC280E5ABD3940040051278
:1034000033BC8008901EC212106E40D7E5ABD39437
:10341000004047E52845277006E52A452960389091
:103420001EC3E0C39405400D123417120F1725E098
:10343000FD7F168030901EC3E0C394055016AD2A60
:10344000AC29AF28AE271223EAEF7008901EC3E024
:1034500004F0808A7F01227F012212341778BC7623
:1034600006E4FDAF2B122F927F00221234B778B6FC
:10347000EFF61235FB08EFF6901EB5E4F0A3E51E5B
:10348000F0A3E5DBF0A3E5D2F0E66005E4FF12046B
:103490000E78B6120FFE75F68075F590122068E46E
:1034A000F52178B6E6FFAD21ED3395E0FCC3ED9F45
:1034B0007480F86C98502D7B01AD1DAF211210ADBA
:1034C000122068122070E521FD3395E0FC74E32D95
:1034D000F582741E3CF583EFF07FB87E0B1235BB8E
:1034E000052180BE901EB5A3E0FFE4FBAD1D1210C8
:1034F000AD901EB7E0F5DBA3E0F5D278B7E6600546
:103500007FFF12040E75F6FF75F5FE7FE87E03124D
:1035100035BB120FED7FF3022D3B7FE87E031235A2
:10352000BB2278B8A6FC08A6BF7522FF75D201752C
:10353000FC0243DB0475FC047F787E001235BB126D
:103540002A0978B8E6F5FCEFC39406501B75220FE4
:1035500075D26143DB0475FC047F787E001235BBB5
:10356000122A0978B8E6F5FCEFC39406501B7522C1
:103570002475D26175DB2075FC047F787E001235DE
:10358000BB122A0978B8E6F5FCEFC39406501B7508
:10359000223275D26175DB6075FC047F787E001283
:1035A00035BB122A0978B8E6F5FCE4FEEEFD33954A
:1035B000E0FC745B2DF58274343CF583E493FDEFFD
:1035C000C39D50040EBE14E478B8E6F5FC08E6F599
:1035D000BFEEF404C39522FF228E238F248C258D09
:1035E000267537007538007539287B007A007927F1
:1035F000123130EF70037F2B227594401217F112B5
:10360000186870020519F5828519837402F0051A8D
:10361000E51A70020519E52365271217FFF0051A50
:10362000E51A70020519E52465281217FFF0051A3E
:10363000E51A70020519E52565271217FFF0051A2E
:10364000E51A70020519E52665281217FFF0051A1C
:10365000E51A700205191218707002051912180681
:1036600075800130A0FD7F147E001235BB12182832
:1036700030A21520A61220A705C2807F0022C2809A
:103680001217FFE044E0FF22C2807F2B2275942CAA
:1036900012104A120F40120EF274C5F0051AE51A04
:1036A00070020519E521C454F0FFE522C4540F4F00
:1036B000120EF7F0051AE51A70020519E522C45436
:1036C000F0FFE523C4540F4F120EF7F0051AE51A68
:1036D00070020519E523C454F0FFE5ADC4540F4F43
:1036E000120EF7F0051AE51A70020519E5ADC4547B
:1036F000F0FFE5AEC4540F4F120EF7F0051AE51AAD
:1037000070020519E5AEC454F0120EF7F075800191
:10371000C2A830A0FD7F647E001235BB120F263098
:10372000A21820A61520A705C2807F002230A70A74
:10373000C280120EF2E044C0FF22C2807F13228FAB
:1037400023C2807594211217F112186870020519AE
:10375000F5828519837403F0051AE51A70020519BC
:10376000E5231218BAFFE5ADC3134F1217FFF0059A
:103770001AE51A70020519E5AD1218BAFFE5AEC3D5
:10378000134F1217FFF0051AE51A70020519E5AE7E
:103790001218BA1217FF12180D75800130A0FD7FA4
:1037A000147E001235BB12182830A21520A6122054
:1037B000A705C2807F0022C2801217FAE044E0FF12
:1037C000227F327E001235BB7B017D207C007F0191
:1037D0001216DCEF7013F519751A011217FFE05479
:1037E0000165237F1B7006FF22C2807F1B221218F7
:1037F000A2120535901EB5121842901EB7EEF0FCCD
:10380000A3EFF075231E752490E4F526121883F5B6
:103810002190000A120535F522901EB5E0FEA3E0C6
:10382000FF7B1A121F00EF6072E4F5257F647E00B3
:103830001235BB7B007A007921121AE88F26E52623
:1038400060090525E525C3940540E112341778BCCD
:103850007606E525C39405400912185BFDAF2602E4
:103860002F9285248285238312185E1218ADEFD320
:103870009E5016852482852383121889EDF0052435
:10388000E524700205230F80E51218E1E5211218E6
:10389000CDE5221218EC7FE0122D3B228E2C8F2DCD
:1038A0008C2E8D2F7537007538007539337B007A73
:1038B000007932123130EF606E122485652CF530BC
:1038C000E533652D12102530A0FD7F1E12247A30BD
:1038D000A25520A652120EF7E065AD704AA3E0652E
:1038E000AE7044C280F537753800753933FB7A0005
:1038F0007932123130EF602F122485652EF530E5D4
:1039000033652F12102530A0FD7F1412247A30A2C7
:103910001620A613120EF7E065AD700BA3E065AE9E
:103920007005C2807F0122C2807F00227E00123596
:10393000BBE4F519F51A227FC87E001235BBE532CB
:10394000228B218A2289238D24E5247007901E80F2
:10395000F07F0122E524D39434400AE4FD7FA912CC
:103960002F927F0022E4FFEFC395245072E51D647F
:1039700001701CF52512351DFEE525903737936E35
:1039800060070525E525B412ECE5256412604DE4D9
:10399000F525901E80E0FEE525C39E501712351DCB
:1039A000FD74812525F582E4341EF583E06D600405
:1039B000052580DEE5256E7023AB21AA22A9238F81
:1039C00082F583120535FE901E80E02481F582E4A5
:1039D000341EF583EEF0901E80E004F00F80887FA7
:1039E00001221218A2120535901EB5121842901E1F
:1039F000B7EEF0121880FF901EB9F0E4F522EF90B8
:103A00001EB560071218967B2B80051218967B2A2C
:103A1000121F00CEEFCEEE60607F057E001235BB38
:103A2000E4F521901EB9E0600D901EB512189612B3
:103A300021278F2280051230438F22E5226009055D
:103A400021E521C3940540DB12341778BC7606E5E6
:103A500021C39405400912185BFDAF22022F9290FA
:103A60001EB9E0901E90600812185EFD7FE280068D
:103A700012185EFD7FE1122FEB2278BDE660027620
:103A800002900005120535901E59F09000061205AF
:103A900035901E55F0900007120535901E54F09099
:103AA0000008120535901E53120F92901E521210EC
:103AB0000E901E5AF090000B120535901E50F01219
:103AC0001094FE33333354F8FDC3EF9DF521E4FF2A
:103AD000EFC39E5010EF121063FD74602F120F5B46
:103AE000EDF00F80EBE5216021EE121063FFC3744F
:103AF000089521FD74FFC8EDC8088002C333D8FCC7
:103B00005FFF74602E120F5BEFF0E4FD7F0C022F5D
:103B1000EB121094FD33333354F8FEC3EF9EFC9048
:103B20001E59E0901EE1F0901E55E0901EE2F090CC
:103B30001E54E0901EE3F0901E53E0901EE4F090BF
:103B40001E52E0901EE5F0901E5AE0901EE6F090A6
:103B50001E50E0901EE7F0E4FFEFC39D5017746025
:103B60002F120F5BE0FE74E82FF582E4341EF5831C
:103B7000EEF00F80E4ED2407901EE0F0EC601A7484
:103B8000602D120F5BE0FF74E82DF582E4341EF522
:103B900083EFF0901EE0E004F0120FED7F0B022D9A
:103BA0003B787FE4F6D8FD7581BD022736022EDA18
:103BB000E493A3F8E493A34003F68001F208DFF452
:103BC0008029E493A3F85407240CC8C333C4540FCA
:103BD0004420C8834004F456800146F6DFE4800B9D
:103BE00001020408102040809035DEE47E019360DD
:103BF000BCA3FF543F30E509541FFEE493A36001CA
:103C00000ECF54C025E060A840B8E493A3FAE49333
:103C1000A3F8E493A3C8C582C8CAC583CAF0A3C8E1
:103C2000C582C8CAC583CADFE9DEE780BE901EE050
:103C30007403F0A3EFF0A3EDF0EF7021EB700D1221
:103C400032F38002C333D8FC42938055BB010C127F
:103C500032F38002C333D8FCF452938044EF640102
:103C60007021EB700E1232F38002C333D8FCF45291
:103C700090800EBB010B1232F38002C333D8FC429A
:103C800090801EBF0228CFEDCF74087E00C8EFC819
:103C9000088005C333CE33CED8F9FFAD90EF5D6019
:103CA00008901EE37401F08005E4901EE3F01232E8
:103CB000FA7F1A022D3B8D3275942BE533B4010542
:103CC00075952E800675953E759F64120EEC74C432
:103CD000F0051AE51A7002051912051C120EF7F00C
:103CE000051AE51A70020519900001120535120E29
:103CF000F7F0051AE51A70020519E532C43354E0ED
:103D0000FFE5AD131313541F4F120EF7F0051AE51C
:103D10001A70020519E5ADC43354E0FFE5AE131384
:103D200013541F4F120EF7F0051AE51A7002051909
:103D3000E5AEC43354E0120EF7F02278BB06E61865
:103D400070010678BCE6B40214123532407078BCBB
:103D5000760312352B122DAA8F1F02317B78BCE619
:103D6000FFB4030B123532405578BC7604804CEF1B
:103D7000B4041BC378BBE6941418E69400403F7863
:103D8000BC760512352BFBAD1DAF1F0210AD78BC04
:103D9000E6FFB40512C378BBE6942318E69400400E
:103DA0001D78BC76068014EFB40613C378BBE69486
:103DB000E818E69403400778BC760212352B2212ED
:103DC0000F83120F10901EB5120F01901EB7EEF068
:103DD000FCA3EFF0E4901EBC120F92901EB91210DB
:103DE0000E901EBAF090000B120535901EBBF0909D
:103DF0001EB5E0FEA3E0FF7B13121F00EF604178C9
:103E0000217C007D007B017A1E79B97E007F031240
:103E100004F61221DB901EBCEFF012341778BC764A
:103E200006901EBCE0FF901E90600A120F1EFE2539
:103E3000E0FD022F92120F1E25E0FD7F82122FEB74
:103E40002285BF2775BF017F147E001235BB85F721
:103E500025AF251235ED8F257F0F7E001235BB75FE
:103E6000BF027F0A7E001235BBABF7AF031235ED00
:103E7000AB07D3EB6480F8E525648098401CEB33F6
:103E800095E0FE7C007D031205C9EF7803CEC313D5
:103E9000CE13D8F92525F526801BAF25EF3395E005
:103EA000FE7C007D031205C9EF7803CEC313CE1349
:103EB000D8F92BF5268527BFAF262285BF2575BFEC
:103EC000037F147E001235BB85F723AF231235ED37
:103ED0008F237F0F7E001235BB75BF047F0A7E00E3
:103EE0001235BBABF7AF031235EDAB07D3EB6480F4
:103EF000F8E523648098401CEB3395E0FE7C007D60
:103F0000031205C9EF7803CEC313CE13D8F92523C6
:103F1000F524801BAF23EF3395E0FE7C007D031278
:103F200005C9EF7803CEC313CE13D8F92BF524853A
:103F300025BFAF242275E91C75D62A75D74275F5C1
:103F40009075F6A075B34675B00E75B19D75B289C2
:103F500075B40175E20F75E31075FB0875F9857589
:103F6000DC0A75D90675DAC475EA0875D23075DBD6
:103F70006075A30875FC0275E6D5E4F5E475E711F4
:103F800043FB207FDC7E051235BBE4F5E4F5FC75D0
:103F9000C42875C50575C22875C30575CF0175CED2
:103FA000B0759A18122AF975AF5822E4F522F52354
:103FB00085EC2485DB2585BF2675EC0143DB0C757C
:103FC000BF01F5E9E5F7B430028035E4F52105E9F4
:103FD0007FF47E011235BBE5F7D39430500585F7A9
:103FE00022800385F723E5226022E523D395224032
:103FF0001B74309522FFE52324D0C39F500215E99E
:104000008524EC8525DB8526BF7F01220521E5215E
:10401000C394FF40B98524EC8525DB8526BF7F004E
:10402000221234B778B6EFF61235FB08EFF6E51E2C
:10403000FD08E4F608EDF6EF6005E4FF12040E1249
:1040400033517FD07E071235BB78B6120FFEE4F5F0
:1040500021E521C378B6965024E4FBAD1DAF2112B3
:1040600010AD7FE87E031235BB122E1974E32521B3
:10407000F582E4341EF583EFF0052180D478B9E6AB
:10408000FFE4FBAD1D1210AD12341778B7E66005E2
:104090007FFF12040E2290000512053590000612D3
:1040A0001853901EB5121845901EB712187D901E19
:1040B000B9F0E4F522901EB5E0FEA3E0FF7B1B12F1
:1040C0001F00EF6045E4F5217F647E001235BB9050
:1040D0001EB9E0FF12228D8F22E52260090521E53D
:1040E00021C3940540E212341778BC7606E521C35B
:1040F0009405901E90E0400912185FFDAF22022F38
:104100009212185FFD7FE3122FEB22CDEFCDCCEEA4
:10411000CCE4120595C3ED9480EC9400500D74012D
:10412000120595F582758300EF804FC3EC944050E3
:104130001C7402120595EDCEECCE7807CEC313CEDB
:1041400013D8F9120FCA547F900002802D74031205
:104150000595ECC413135403120FCACEECCE7807A6
:10416000CEC313CE13D8F9547F9000021205A79046
:104170000002120FD3547F9000031205A7227594FA
:104180001D75950CEF901E596009E054E34404F549
:1041900034800BE0541F448054E34414F534E4F5B8
:1041A00019F51AE534C4540F44A0120EF7F0051A9D
:1041B000E51A70020519E534C454F0120EF7F00543
:1041C0001AE51A70020519F582851983E4F0051ABB
:1041D000E51A70020519F582851983E4F0758001EE
:1041E00030A0FD7F1E7E001235BBC280228F278B40
:1041F000288A29892A7FBB12363F7F0112363FAFBA
:104200002712363FE4FF122D9C122D9CE527042F28
:10421000F52CE4F52BAB28AA29A92A12051CFFE5E9
:104220002BC39F501FE92401F9E43AFA7E00E925E7
:104230002BF9EE3AFA12051CFF252CF52C12363F0D
:10424000052B80D1AF2C12363F7F7E02363F1236CF
:104250003FAB28AA29A92A12051CFF22901E80E044
:10426000704FE51D24FE602614603514600824FE9E
:104270006025240570381230977C007D12120630BC
:1042800074372DF58274373CF583E493FF221230A6
:10429000977C007D3480101230977C007D20800751
:1042A0001230977C007D0F120630CFEDCF227F01B8
:1042B00022123097901E80E0FD7C0012063074813F
:1042C0002DF582741E3CF583E0FF2285D222E4F5B1
:1042D000D275240185DB2375DB047F0AFE1235BB12
:1042E00012298FEFC3941A500975D2307524091220
:1042F000298FEFC3941A500975D2607524111229C1
:104300008FE4FEEEFD3395E0FC74432DF5827434AA
:104310003CF583E493FDEFC39D50040EBE18E48585
:1043200022D28523DBC374089EC39524FF22E47840
:10433000B4F608F6901E5904F0E4901E55F0901E55
:1043400054F0901E53F0901E527420F0E4901E5AC8
:10435000F0901E50F07F20901E60E4F0A3DFFC7808
:10436000BD76FF78BC7606E478BAF608F6751D01CE
:10437000751E07901E80F075180B901E51120FBC11
:1043800074B0120FF47D067F020234DA7593F7D20F
:1043900093D2ACD2BCC280D2AFE478B4F608F6F5C2
:1043A00019F51A7FC8FE1235BB123635122A831250
:1043B0002E7C7F887E131235BBE4F5907FFF1204BC
:1043C0000E300005120AE6C200D378B5E694001854
:1043D000E6940040EC12324D78B5E61618700116DE
:1043E0007FE87E031235BB80D8EF7016741012324E
:1043F000E89037191232D8EEF00521E521B40FF11B
:104400008039BF011674061232E89037291232D86B
:10441000EEF00521E521B405F18020EF6402702360
:10442000901EE074081232EBE52190372F93FF12B3
:1044300032DCEFF00521E521B407ED1232FA7F03FB
:10444000122D3B228F2C8D2DE4F52E7FBB12363F93
:104450007F0112363F7FFF12363FE4FF12363FE501
:104460002D70097F0112363F052E8010E52D2402A4
:10447000FF12363FE52D2402252EF52EAF2C1236E5
:104480003FE52C252EF52EE52D6008123312EF2581
:104490002EF52EAF2E12363F7F7E02363F8F278DB0
:1044A00028E4F5297FBB12363F7F0112363FAF2744
:1044B00012363FE4FF12363FE52704F529E5287060
:1044C000097F0112363F05298010E5282402FF12DA
:1044D000363FE52824022529F529E528600812330E
:1044E00012EF2529F529E4FF12363FAF2912363F96
:1044F0007F7E02363F7594201217F1121868700201
:104500000519F5828519837401F0051AE51A700200
:1045100005191218707002051912180675800130FD
:10452000A0FD7F147E001235BB12182830A2152082
:10453000A61220A705C2807F0022C2801217FFE0CA
:1045400044E0FF22C2807F2A22AC4EAD4FAE50AF76
:10455000517810EC4D4E4F70047CA57DA5C3EC1333
:10456000FCED13FDEE13FEEF13FF5010EC64CCFCDA
:10457000ED644CFDEE644EFEEF64CEFFD8DF8C4E52
:104580008D4F8E508F51EE547FFE228E4E8F4F7482
:10459000A5F550F55122C0E0C0F0C083C082C0D064
:1045A000E8C0E0E9C0E0EAC0E0EBC0E0ECC0E0ED6C
:1045B000C0E0EEC0E0EFC0E0C2A9122889D2A9D0C5
:1045C000E0FFD0E0FED0E0FDD0E0FCD0E0FBD0E0AA
:1045D000FAD0E0F9D0E0F8D0D0D082D083D0F0D0BB
:1045E000E032759418120EE974C1F0051AE51A70DC
:1045F00002051912103D70020519F582851983E52F
:10460000AEF075800130A0FD30A21D20A61AC28038
:10461000120EF2E0120595120EF7A3E0AB37AA389E
:10462000A9391205957F0122C2807F0022E4F53A64
:10463000F53BFE78BC7609FB7A00793CAD1D12157E
:10464000BBCEEFCEEE6402701FF53A743C253AF80B
:10465000E6D394064002053B053AE53AB404ECE59E
:104660003BC39403400D8003BE010812352B78BC78
:1046700076022278BC760422E0FCA3E0FDA3E0FEF3
:10468000A3E024B0FFEE34FFFEED34FFFDEC34FF79
:10469000FCE47BC87A32F9F8227DFAAF107E007C08
:1046A000001207BDEF22E0FCA3E0FDA3E0FEA3E0C3
:1046B000FF22AF16AE15AD14AC13780122E4FDED68
:1046C0001210577401932432FBE4933400FAD3EFB1
:1046D0009BEA6480F8EE64809840040DBD0CE0ED28
:1046E000C3940C40027D0B8D1812109FF5F9E5184C
:1046F0009036F593F5DAE5189036DD93F5DC221265
:1047000034FDEF6007E4FD7F20022F9278BC76072E
:104710001233517F947E021235BBC2A8759A187865
:10472000BDE6700A1207EA7FC87E001235BB7580AD
:104730000330A0FD123417C280120CF278BC76064A
:1047400022759428120EE974C6F0051AE51A700253
:10475000051912051C120EF7F0051AE51A7002056C
:1047600019900001120535120EF7F0051AE51A70BE
:1047700002051912103D70020519F582851983E5AD
:10478000AEF0227B007A00795422E52193FE74E298
:104790002521F582E4341EF58322901EE0F0A3EF7C
:1047A000F0E4F521227408C8EDC808227B017A1EC6
:1047B00079E0227859E6FFE4FB227859E6FE08E624
:1047C000FDEDFF2275301E7531901210A6120F1EDE
:1047D00025E0F532F533FF12363FE4F52FE52FC320
:1047E0009532501C1210A6E0FF12363F1210A6E0C0
:1047F0002533F5330531E53170020530052F80DDB5
:10480000AF332212109FF52CE5189036F593F5DAA8
:1048100075F68075F58075DD03E5189036DD93F546
:10482000DC5393FB439004752D80E52DD3952C50DC
:104830000E852DF97F037E001235BB052D80EB22FE
:10484000901E51BF01127401F004120FC174421284
:104850000FF47D027F01800C120FBC74A0120FF4C4
:104860007D067F021234DAE4FD7FF5022FEB7F90A4
:104870007E1E120EF2120F1E25E0FDE4FCECC39D1D
:104880005019120EF7E08F828E83F0051AE51A7028
:104890000205190FBF00010E0C80E222901EE07489
:1048A00004F0901E51E0901EE1F0901E56E0901E24
:1048B000E2F0901E57E0901EE3F0901E58E0901E2C
:1048C000E4120FEC7FF1022D3B12109FF52CE52C2A
:1048D000C39480400E852CF97F037E001235BB15F2
:1048E0002C80EBE4F5DDF5DC4393045390FB75F687
:1048F000FF75F5FE22544B423B352F2A25211D1A08
:10490000171512100E0D0B0A090807060536302B75
:1049100026221E1A181513100E0D0B0A0908070679
:1049200005E4FFF519F51A1217FFE0FEEF9037497D
:1049300093FDEE6D600122051AE51A700205190F4C
:10494000BF08E47F0822E518121057E493F521749C
:104950000193F522901EE07402F0A3E521F0A3E597
:1049600022120FEC7FB7022D3BE51D24FE601114CF
:10497000601414601424FE600A2405700C7F142255
:104980007F34227F20227F0F227F14228A218B22D4
:10499000EFC454F0FFE5D2540F4FF5D2EDC454F0FC
:1049A000FFE5DB540F4FF5DB8522CE8521CF22E4D6
:1049B000F52C78BCE6640660137FE87E031235BBF5
:1049C000052CE52CD3943240E97F01227F0022ABF5
:1049D00021AA22A9238F82758300020535E478BAC3
:1049E000F608F622C378BBE6946418E6940022CC5D
:1049F000EECCCDEFCD7E1F7FBD1205DBC3E49FF56E
:104A000022E49EF5218522CA8521CB22901EE074E6
:104A100002F0A3E59CF0E59D33333354F8A3F01284
:104A20000FED7F0D022D3B901EE07401F0A3E51DFC
:104A3000F07B017A1E79E07F08122D3BAF1D22909A
:104A40001EE07401F0A3E51EF07B017A1E79E07F81
:104A5000AA122D3BAF1E22EF540F4410F59CED130C
:104A60001313541FF59DE4FD7F0E022FEBEF1F7013
:104A7000011E144E60090000000000000080EE22BC
:104A8000CDEFCD8D1DE4901E80F0FB7F010210ADB7
:104A9000021B36AAC101C10001530001520000C32C
:104AA000EF648094805005EFF404FF222230A906C1
:104AB000308C037F01227F0022E5F530E4030233CE
:104AC0005112341722E478B4F608F6FD7F28022F3D
:104AD000EB78BDEFF6E4FD7F12022FEBC2AFE4FFEF
:104AE00012040E02000022438902538EF7758C26B1
:104AF000228F993099FDC29922C2AFC280D2AF32C3
:104B000000220026002B00300036003D0044004CFF
:104B100000560060006C00790088009900AC00C16C
:104B200000D800F3011001320157018101B001E505
:104B30000220026202AD0300035E03C7043E04C20A
:104B4000055705FE06B9078B0876097F0AA70BF4FF
:104B50000D6A0F0D10E312F3154317DB1AC41E087C
:104B600021B225CF2A6C2F9935683BEC433C4B7022
:104B700054A55EF96A8F779086279685A8E3BD7E57
:104B8000000306090C0F100C1215181B1E242830E8
:104B900020282030303030303030308081828383A4
:104BA0008485868788898CC4C4C4C4C4C4C4C4C46E
:104BB000C4C4C405DC064006A40708076C07D00877
:104BC00034089808FC096009C40A284D31303020A7
:104BD000323664426D2056312E300056322E31303E
:104BE000004D616769635266000001020304050617
:104BF0000708090A0D0E0F10111213690AEC7CD276
:104C000015D8F9D3D3D3D3D3D30000002C4C000054
:104C1000000000202800000004010000544C0000A7
:104C200028000020F0060000200100000000000025
:104C30000000000001000000010000000000000072
:104C40000000AA01000000000000000000000000B9
:044C50000000000060
:04000005000016855C
:00000001FF
